{
  "_format": "hh-sol-artifact-1",
  "contractName": "UniversityName_GroupNameToken",
  "sourceName": "contracts/UniversityName_GroupNameToken.sol",
  "abi": [
    {
      "inputs": [
        {
          "internalType": "uint256",
          "name": "initialSupply",
          "type": "uint256"
        }
      ],
      "stateMutability": "nonpayable",
      "type": "constructor"
    },
    {
      "inputs": [
        {
          "internalType": "address",
          "name": "spender",
          "type": "address"
        },
        {
          "internalType": "uint256",
          "name": "allowance",
          "type": "uint256"
        },
        {
          "internalType": "uint256",
          "name": "needed",
          "type": "uint256"
        }
      ],
      "name": "ERC20InsufficientAllowance",
      "type": "error"
    },
    {
      "inputs": [
        {
          "internalType": "address",
          "name": "sender",
          "type": "address"
        },
        {
          "internalType": "uint256",
          "name": "balance",
          "type": "uint256"
        },
        {
          "internalType": "uint256",
          "name": "needed",
          "type": "uint256"
        }
      ],
      "name": "ERC20InsufficientBalance",
      "type": "error"
    },
    {
      "inputs": [
        {
          "internalType": "address",
          "name": "approver",
          "type": "address"
        }
      ],
      "name": "ERC20InvalidApprover",
      "type": "error"
    },
    {
      "inputs": [
        {
          "internalType": "address",
          "name": "receiver",
          "type": "address"
        }
      ],
      "name": "ERC20InvalidReceiver",
      "type": "error"
    },
    {
      "inputs": [
        {
          "internalType": "address",
          "name": "sender",
          "type": "address"
        }
      ],
      "name": "ERC20InvalidSender",
      "type": "error"
    },
    {
      "inputs": [
        {
          "internalType": "address",
          "name": "spender",
          "type": "address"
        }
      ],
      "name": "ERC20InvalidSpender",
      "type": "error"
    },
    {
      "anonymous": false,
      "inputs": [
        {
          "indexed": true,
          "internalType": "address",
          "name": "owner",
          "type": "address"
        },
        {
          "indexed": true,
          "internalType": "address",
          "name": "spender",
          "type": "address"
        },
        {
          "indexed": false,
          "internalType": "uint256",
          "name": "value",
          "type": "uint256"
        }
      ],
      "name": "Approval",
      "type": "event"
    },
    {
      "anonymous": false,
      "inputs": [
        {
          "indexed": true,
          "internalType": "address",
          "name": "from",
          "type": "address"
        },
        {
          "indexed": true,
          "internalType": "address",
          "name": "to",
          "type": "address"
        },
        {
          "indexed": false,
          "internalType": "uint256",
          "name": "value",
          "type": "uint256"
        }
      ],
      "name": "Transfer",
      "type": "event"
    },
    {
      "inputs": [
        {
          "internalType": "address",
          "name": "owner",
          "type": "address"
        },
        {
          "internalType": "address",
          "name": "spender",
          "type": "address"
        }
      ],
      "name": "allowance",
      "outputs": [
        {
          "internalType": "uint256",
          "name": "",
          "type": "uint256"
        }
      ],
      "stateMutability": "view",
      "type": "function"
    },
    {
      "inputs": [
        {
          "internalType": "address",
          "name": "spender",
          "type": "address"
        },
        {
          "internalType": "uint256",
          "name": "value",
          "type": "uint256"
        }
      ],
      "name": "approve",
      "outputs": [
        {
          "internalType": "bool",
          "name": "",
          "type": "bool"
        }
      ],
      "stateMutability": "nonpayable",
      "type": "function"
    },
    {
      "inputs": [
        {
          "internalType": "address",
          "name": "account",
          "type": "address"
        }
      ],
      "name": "balanceOf",
      "outputs": [
        {
          "internalType": "uint256",
          "name": "",
          "type": "uint256"
        }
      ],
      "stateMutability": "view",
      "type": "function"
    },
    {
      "inputs": [],
      "name": "decimals",
      "outputs": [
        {
          "internalType": "uint8",
          "name": "",
          "type": "uint8"
        }
      ],
      "stateMutability": "view",
      "type": "function"
    },
    {
      "inputs": [],
      "name": "getLatestTransactionTimestamp",
      "outputs": [
        {
          "internalType": "string",
          "name": "",
          "type": "string"
        }
      ],
      "stateMutability": "view",
      "type": "function"
    },
    {
      "inputs": [],
      "name": "getReceiverAddress",
      "outputs": [
        {
          "internalType": "address",
          "name": "",
          "type": "address"
        }
      ],
      "stateMutability": "view",
      "type": "function"
    },
    {
      "inputs": [],
      "name": "getSenderAddress",
      "outputs": [
        {
          "internalType": "address",
          "name": "",
          "type": "address"
        }
      ],
      "stateMutability": "view",
      "type": "function"
    },
    {
      "inputs": [
        {
          "internalType": "address",
          "name": "sender",
          "type": "address"
        },
        {
          "internalType": "address",
          "name": "receiver",
          "type": "address"
        }
      ],
      "name": "getTransactionDetails",
      "outputs": [
        {
          "internalType": "uint256",
          "name": "",
          "type": "uint256"
        },
        {
          "internalType": "uint256",
          "name": "",
          "type": "uint256"
        }
      ],
      "stateMutability": "view",
      "type": "function"
    },
    {
      "inputs": [],
      "name": "name",
      "outputs": [
        {
          "internalType": "string",
          "name": "",
          "type": "string"
        }
      ],
      "stateMutability": "view",
      "type": "function"
    },
    {
      "inputs": [],
      "name": "symbol",
      "outputs": [
        {
          "internalType": "string",
          "name": "",
          "type": "string"
        }
      ],
      "stateMutability": "view",
      "type": "function"
    },
    {
      "inputs": [],
      "name": "totalSupply",
      "outputs": [
        {
          "internalType": "uint256",
          "name": "",
          "type": "uint256"
        }
      ],
      "stateMutability": "view",
      "type": "function"
    },
    {
      "inputs": [
        {
          "internalType": "address",
          "name": "to",
          "type": "address"
        },
        {
          "internalType": "uint256",
          "name": "value",
          "type": "uint256"
        }
      ],
      "name": "transfer",
      "outputs": [
        {
          "internalType": "bool",
          "name": "",
          "type": "bool"
        }
      ],
      "stateMutability": "nonpayable",
      "type": "function"
    },
    {
      "inputs": [
        {
          "internalType": "address",
          "name": "from",
          "type": "address"
        },
        {
          "internalType": "address",
          "name": "to",
          "type": "address"
        },
        {
          "internalType": "uint256",
          "name": "value",
          "type": "uint256"
        }
      ],
      "name": "transferFrom",
      "outputs": [
        {
          "internalType": "bool",
          "name": "",
          "type": "bool"
        }
      ],
      "stateMutability": "nonpayable",
      "type": "function"
    }
  ],
  "bytecode": "0x608060405234801561001057600080fd5b50604051611cc9380380611cc9833981810160405281019061003291906103be565b6040518060400160405280601d81526020017f556e69766572736974794e616d655f47726f75704e616d65546f6b656e0000008152506040518060400160405280600481526020017f554e47540000000000000000000000000000000000000000000000000000000081525081600390816100ad9190610631565b5080600490816100bd9190610631565b5050506100d033826100d660201b60201c565b50610823565b600073ffffffffffffffffffffffffffffffffffffffff168273ffffffffffffffffffffffffffffffffffffffff16036101485760006040517fec442f0500000000000000000000000000000000000000000000000000000000815260040161013f9190610744565b60405180910390fd5b61015a6000838361015e60201b60201c565b5050565b600073ffffffffffffffffffffffffffffffffffffffff168373ffffffffffffffffffffffffffffffffffffffff16036101b05780600260008282546101a4919061078e565b92505081905550610283565b60008060008573ffffffffffffffffffffffffffffffffffffffff1673ffffffffffffffffffffffffffffffffffffffff1681526020019081526020016000205490508181101561023c578381836040517fe450d38c000000000000000000000000000000000000000000000000000000008152600401610233939291906107d1565b60405180910390fd5b8181036000808673ffffffffffffffffffffffffffffffffffffffff1673ffffffffffffffffffffffffffffffffffffffff16815260200190815260200160002081905550505b600073ffffffffffffffffffffffffffffffffffffffff168273ffffffffffffffffffffffffffffffffffffffff16036102cc5780600260008282540392505081905550610319565b806000808473ffffffffffffffffffffffffffffffffffffffff1673ffffffffffffffffffffffffffffffffffffffff168152602001908152602001600020600082825401925050819055505b8173ffffffffffffffffffffffffffffffffffffffff168373ffffffffffffffffffffffffffffffffffffffff167fddf252ad1be2c89b69c2b068fc378daa952ba7f163c4a11628f55a4df523b3ef836040516103769190610808565b60405180910390a3505050565b600080fd5b6000819050919050565b61039b81610388565b81146103a657600080fd5b50565b6000815190506103b881610392565b92915050565b6000602082840312156103d4576103d3610383565b5b60006103e2848285016103a9565b91505092915050565b600081519050919050565b7f4e487b7100000000000000000000000000000000000000000000000000000000600052604160045260246000fd5b7f4e487b7100000000000000000000000000000000000000000000000000000000600052602260045260246000fd5b6000600282049050600182168061046c57607f821691505b60208210810361047f5761047e610425565b5b50919050565b60008190508160005260206000209050919050565b60006020601f8301049050919050565b600082821b905092915050565b6000600883026104e77fffffffffffffffffffffffffffffffffffffffffffffffffffffffffffffffff826104aa565b6104f186836104aa565b95508019841693508086168417925050509392505050565b6000819050919050565b600061052e61052961052484610388565b610509565b610388565b9050919050565b6000819050919050565b61054883610513565b61055c61055482610535565b8484546104b7565b825550505050565b600090565b610571610564565b61057c81848461053f565b505050565b5b818110156105a057610595600082610569565b600181019050610582565b5050565b601f8211156105e5576105b681610485565b6105bf8461049a565b810160208510156105ce578190505b6105e26105da8561049a565b830182610581565b50505b505050565b600082821c905092915050565b6000610608600019846008026105ea565b1980831691505092915050565b600061062183836105f7565b9150826002028217905092915050565b61063a826103eb565b67ffffffffffffffff811115610653576106526103f6565b5b61065d8254610454565b6106688282856105a4565b600060209050601f83116001811461069b5760008415610689578287015190505b6106938582610615565b8655506106fb565b601f1984166106a986610485565b60005b828110156106d1578489015182556001820191506020850194506020810190506106ac565b868310156106ee57848901516106ea601f8916826105f7565b8355505b6001600288020188555050505b505050505050565b600073ffffffffffffffffffffffffffffffffffffffff82169050919050565b600061072e82610703565b9050919050565b61073e81610723565b82525050565b60006020820190506107596000830184610735565b92915050565b7f4e487b7100000000000000000000000000000000000000000000000000000000600052601160045260246000fd5b600061079982610388565b91506107a483610388565b92508282019050808211156107bc576107bb61075f565b5b92915050565b6107cb81610388565b82525050565b60006060820190506107e66000830186610735565b6107f360208301856107c2565b61080060408301846107c2565b949350505050565b600060208201905061081d60008301846107c2565b92915050565b611497806108326000396000f3fe608060405234801561001057600080fd5b50600436106100cf5760003560e01c806345737b7b1161008c57806395d89b411161006657806395d89b411461022b578063a9059cbb14610249578063d45e3f4a14610279578063dd62ed3e14610297576100cf565b806345737b7b146101ac578063531ebce5146101dd57806370a08231146101fb576100cf565b806306fdde03146100d4578063095ea7b3146100f257806318160ddd1461012257806323b872dd14610140578063313ce5671461017057806342948e181461018e575b600080fd5b6100dc6102c7565b6040516100e99190610e24565b60405180910390f35b61010c60048036038101906101079190610edf565b610359565b6040516101199190610f3a565b60405180910390f35b61012a61037c565b6040516101379190610f64565b60405180910390f35b61015a60048036038101906101559190610f7f565b610386565b6040516101679190610f3a565b60405180910390f35b6101786103b5565b6040516101859190610fee565b60405180910390f35b6101966103be565b6040516101a39190611018565b60405180910390f35b6101c660048036038101906101c19190611033565b6103c6565b6040516101d4929190611073565b60405180910390f35b6101e56103f2565b6040516101f29190611018565b60405180910390f35b6102156004803603810190610210919061109c565b6103fa565b6040516102229190610f64565b60405180910390f35b610233610442565b6040516102409190610e24565b60405180910390f35b610263600480360381019061025e9190610edf565b6104d4565b6040516102709190610f3a565b60405180910390f35b6102816104f7565b60405161028e9190610e24565b60405180910390f35b6102b160048036038101906102ac9190611033565b610507565b6040516102be9190610f64565b60405180910390f35b6060600380546102d6906110f8565b80601f0160208091040260200160405190810160405280929190818152602001828054610302906110f8565b801561034f5780601f106103245761010080835404028352916020019161034f565b820191906000526020600020905b81548152906001019060200180831161033257829003601f168201915b5050505050905090565b60008061036461058e565b9050610371818585610596565b600191505092915050565b6000600254905090565b60008061039161058e565b905061039e8582856105a8565b6103a985858561063d565b60019150509392505050565b60006012905090565b600033905090565b60008060006103d4856103fa565b905060006103e1856103fa565b905081819350935050509250929050565b600030905090565b60008060008373ffffffffffffffffffffffffffffffffffffffff1673ffffffffffffffffffffffffffffffffffffffff168152602001908152602001600020549050919050565b606060048054610451906110f8565b80601f016020809104026020016040519081016040528092919081815260200182805461047d906110f8565b80156104ca5780601f1061049f576101008083540402835291602001916104ca565b820191906000526020600020905b8154815290600101906020018083116104ad57829003601f168201915b5050505050905090565b6000806104df61058e565b90506104ec81858561063d565b600191505092915050565b606061050242610731565b905090565b6000600160008473ffffffffffffffffffffffffffffffffffffffff1673ffffffffffffffffffffffffffffffffffffffff16815260200190815260200160002060008373ffffffffffffffffffffffffffffffffffffffff1673ffffffffffffffffffffffffffffffffffffffff16815260200190815260200160002054905092915050565b600033905090565b6105a38383836001610837565b505050565b60006105b48484610507565b90507fffffffffffffffffffffffffffffffffffffffffffffffffffffffffffffffff8110156106375781811015610627578281836040517ffb8f41b200000000000000000000000000000000000000000000000000000000815260040161061e93929190611129565b60405180910390fd5b61063684848484036000610837565b5b50505050565b600073ffffffffffffffffffffffffffffffffffffffff168373ffffffffffffffffffffffffffffffffffffffff16036106af5760006040517f96c6fd1e0000000000000000000000000000000000000000000000000000000081526004016106a69190611018565b60405180910390fd5b600073ffffffffffffffffffffffffffffffffffffffff168273ffffffffffffffffffffffffffffffffffffffff16036107215760006040517fec442f050000000000000000000000000000000000000000000000000000000081526004016107189190611018565b60405180910390fd5b61072c838383610a0e565b505050565b60606000603c83610742919061118f565b90506000603c808561075491906111ef565b61075e919061118f565b905060006018610e108661077291906111ef565b61077c919061118f565b90506000601e620151808761079191906111ef565b61079b919061118f565b90506000600c62278d00886107b091906111ef565b6107ba919061118f565b905060006301e13380886107ce91906111ef565b90506107d981610c33565b6107e283610c33565b6107eb85610c33565b6107f487610c33565b6107fd89610c33565b6108068b610c33565b60405160200161081b96959493929190611340565b6040516020818303038152906040529650505050505050919050565b600073ffffffffffffffffffffffffffffffffffffffff168473ffffffffffffffffffffffffffffffffffffffff16036108a95760006040517fe602df050000000000000000000000000000000000000000000000000000000081526004016108a09190611018565b60405180910390fd5b600073ffffffffffffffffffffffffffffffffffffffff168373ffffffffffffffffffffffffffffffffffffffff160361091b5760006040517f94280d620000000000000000000000000000000000000000000000000000000081526004016109129190611018565b60405180910390fd5b81600160008673ffffffffffffffffffffffffffffffffffffffff1673ffffffffffffffffffffffffffffffffffffffff16815260200190815260200160002060008573ffffffffffffffffffffffffffffffffffffffff1673ffffffffffffffffffffffffffffffffffffffff168152602001908152602001600020819055508015610a08578273ffffffffffffffffffffffffffffffffffffffff168473ffffffffffffffffffffffffffffffffffffffff167f8c5be1e5ebec7d5bd14f71427d1e84f3dd0314c0f7b2291e5b200ac8c7c3b925846040516109ff9190610f64565b60405180910390a35b50505050565b600073ffffffffffffffffffffffffffffffffffffffff168373ffffffffffffffffffffffffffffffffffffffff1603610a60578060026000828254610a5491906113cf565b92505081905550610b33565b60008060008573ffffffffffffffffffffffffffffffffffffffff1673ffffffffffffffffffffffffffffffffffffffff16815260200190815260200160002054905081811015610aec578381836040517fe450d38c000000000000000000000000000000000000000000000000000000008152600401610ae393929190611129565b60405180910390fd5b8181036000808673ffffffffffffffffffffffffffffffffffffffff1673ffffffffffffffffffffffffffffffffffffffff16815260200190815260200160002081905550505b600073ffffffffffffffffffffffffffffffffffffffff168273ffffffffffffffffffffffffffffffffffffffff1603610b7c5780600260008282540392505081905550610bc9565b806000808473ffffffffffffffffffffffffffffffffffffffff1673ffffffffffffffffffffffffffffffffffffffff168152602001908152602001600020600082825401925050819055505b8173ffffffffffffffffffffffffffffffffffffffff168373ffffffffffffffffffffffffffffffffffffffff167fddf252ad1be2c89b69c2b068fc378daa952ba7f163c4a11628f55a4df523b3ef83604051610c269190610f64565b60405180910390a3505050565b606060008203610c7a576040518060400160405280600181526020017f30000000000000000000000000000000000000000000000000000000000000008152509050610d8f565b600082905060005b60008214610cab578080600101915050600a8281610ca357610ca2611160565b5b049150610c82565b60008167ffffffffffffffff811115610cc757610cc6611403565b5b6040519080825280601f01601f191660200182016040528015610cf95781602001600182028036833780820191505090505b50905060006001830390505b60008614610d8757600a8681610d1e57610d1d611160565b5b0660300160f81b82828060019003935081518110610d3f57610d3e611432565b5b60200101907effffffffffffffffffffffffffffffffffffffffffffffffffffffffffffff1916908160001a905350600a8681610d7f57610d7e611160565b5b049550610d05565b819450505050505b919050565b600081519050919050565b600082825260208201905092915050565b60005b83811015610dce578082015181840152602081019050610db3565b60008484015250505050565b6000601f19601f8301169050919050565b6000610df682610d94565b610e008185610d9f565b9350610e10818560208601610db0565b610e1981610dda565b840191505092915050565b60006020820190508181036000830152610e3e8184610deb565b905092915050565b600080fd5b600073ffffffffffffffffffffffffffffffffffffffff82169050919050565b6000610e7682610e4b565b9050919050565b610e8681610e6b565b8114610e9157600080fd5b50565b600081359050610ea381610e7d565b92915050565b6000819050919050565b610ebc81610ea9565b8114610ec757600080fd5b50565b600081359050610ed981610eb3565b92915050565b60008060408385031215610ef657610ef5610e46565b5b6000610f0485828601610e94565b9250506020610f1585828601610eca565b9150509250929050565b60008115159050919050565b610f3481610f1f565b82525050565b6000602082019050610f4f6000830184610f2b565b92915050565b610f5e81610ea9565b82525050565b6000602082019050610f796000830184610f55565b92915050565b600080600060608486031215610f9857610f97610e46565b5b6000610fa686828701610e94565b9350506020610fb786828701610e94565b9250506040610fc886828701610eca565b9150509250925092565b600060ff82169050919050565b610fe881610fd2565b82525050565b60006020820190506110036000830184610fdf565b92915050565b61101281610e6b565b82525050565b600060208201905061102d6000830184611009565b92915050565b6000806040838503121561104a57611049610e46565b5b600061105885828601610e94565b925050602061106985828601610e94565b9150509250929050565b60006040820190506110886000830185610f55565b6110956020830184610f55565b9392505050565b6000602082840312156110b2576110b1610e46565b5b60006110c084828501610e94565b91505092915050565b7f4e487b7100000000000000000000000000000000000000000000000000000000600052602260045260246000fd5b6000600282049050600182168061111057607f821691505b602082108103611123576111226110c9565b5b50919050565b600060608201905061113e6000830186611009565b61114b6020830185610f55565b6111586040830184610f55565b949350505050565b7f4e487b7100000000000000000000000000000000000000000000000000000000600052601260045260246000fd5b600061119a82610ea9565b91506111a583610ea9565b9250826111b5576111b4611160565b5b828206905092915050565b7f4e487b7100000000000000000000000000000000000000000000000000000000600052601160045260246000fd5b60006111fa82610ea9565b915061120583610ea9565b92508261121557611214611160565b5b828204905092915050565b600081905092915050565b600061123682610d94565b6112408185611220565b9350611250818560208601610db0565b80840191505092915050565b7f2d00000000000000000000000000000000000000000000000000000000000000600082015250565b6000611292600183611220565b915061129d8261125c565b600182019050919050565b7f2000000000000000000000000000000000000000000000000000000000000000600082015250565b60006112de600183611220565b91506112e9826112a8565b600182019050919050565b7f3a00000000000000000000000000000000000000000000000000000000000000600082015250565b600061132a600183611220565b9150611335826112f4565b600182019050919050565b600061134c828961122b565b915061135782611285565b9150611363828861122b565b915061136e82611285565b915061137a828761122b565b9150611385826112d1565b9150611391828661122b565b915061139c8261131d565b91506113a8828561122b565b91506113b38261131d565b91506113bf828461122b565b9150819050979650505050505050565b60006113da82610ea9565b91506113e583610ea9565b92508282019050808211156113fd576113fc6111c0565b5b92915050565b7f4e487b7100000000000000000000000000000000000000000000000000000000600052604160045260246000fd5b7f4e487b7100000000000000000000000000000000000000000000000000000000600052603260045260246000fdfea26469706673582212207f113133f8fade57dfd5e1992922966e635955634c2825c9ba6f57363bf4d5b364736f6c634300081c0033",
  "linkReferences": {},
  "deployedLinkReferences": {}
}